{
  "contractName": "IslandOwnership",
  "abi": [
    {
      "inputs": [],
      "stateMutability": "nonpayable",
      "type": "constructor"
    },
    {
      "anonymous": false,
      "inputs": [
        {
          "indexed": true,
          "internalType": "address",
          "name": "owner",
          "type": "address"
        },
        {
          "indexed": true,
          "internalType": "address",
          "name": "approved",
          "type": "address"
        },
        {
          "indexed": true,
          "internalType": "uint256",
          "name": "tokenId",
          "type": "uint256"
        }
      ],
      "name": "Approval",
      "type": "event"
    },
    {
      "anonymous": false,
      "inputs": [
        {
          "indexed": true,
          "internalType": "address",
          "name": "owner",
          "type": "address"
        },
        {
          "indexed": true,
          "internalType": "address",
          "name": "operator",
          "type": "address"
        },
        {
          "indexed": false,
          "internalType": "bool",
          "name": "approved",
          "type": "bool"
        }
      ],
      "name": "ApprovalForAll",
      "type": "event"
    },
    {
      "anonymous": false,
      "inputs": [
        {
          "indexed": true,
          "internalType": "address",
          "name": "from",
          "type": "address"
        },
        {
          "indexed": true,
          "internalType": "address",
          "name": "to",
          "type": "address"
        },
        {
          "indexed": true,
          "internalType": "uint256",
          "name": "tokenId",
          "type": "uint256"
        }
      ],
      "name": "Transfer",
      "type": "event"
    },
    {
      "inputs": [
        {
          "internalType": "address",
          "name": "to",
          "type": "address"
        },
        {
          "internalType": "uint256",
          "name": "tokenId",
          "type": "uint256"
        }
      ],
      "name": "approve",
      "outputs": [],
      "stateMutability": "nonpayable",
      "type": "function"
    },
    {
      "inputs": [
        {
          "internalType": "address",
          "name": "owner",
          "type": "address"
        }
      ],
      "name": "balanceOf",
      "outputs": [
        {
          "internalType": "uint256",
          "name": "",
          "type": "uint256"
        }
      ],
      "stateMutability": "view",
      "type": "function",
      "constant": true
    },
    {
      "inputs": [
        {
          "internalType": "uint256",
          "name": "tokenId",
          "type": "uint256"
        }
      ],
      "name": "getApproved",
      "outputs": [
        {
          "internalType": "address",
          "name": "",
          "type": "address"
        }
      ],
      "stateMutability": "view",
      "type": "function",
      "constant": true
    },
    {
      "inputs": [
        {
          "internalType": "address",
          "name": "owner",
          "type": "address"
        },
        {
          "internalType": "address",
          "name": "operator",
          "type": "address"
        }
      ],
      "name": "isApprovedForAll",
      "outputs": [
        {
          "internalType": "bool",
          "name": "",
          "type": "bool"
        }
      ],
      "stateMutability": "view",
      "type": "function",
      "constant": true
    },
    {
      "inputs": [],
      "name": "name",
      "outputs": [
        {
          "internalType": "string",
          "name": "",
          "type": "string"
        }
      ],
      "stateMutability": "view",
      "type": "function",
      "constant": true
    },
    {
      "inputs": [
        {
          "internalType": "uint256",
          "name": "tokenId",
          "type": "uint256"
        }
      ],
      "name": "ownerOf",
      "outputs": [
        {
          "internalType": "address",
          "name": "",
          "type": "address"
        }
      ],
      "stateMutability": "view",
      "type": "function",
      "constant": true
    },
    {
      "inputs": [
        {
          "internalType": "address",
          "name": "from",
          "type": "address"
        },
        {
          "internalType": "address",
          "name": "to",
          "type": "address"
        },
        {
          "internalType": "uint256",
          "name": "tokenId",
          "type": "uint256"
        }
      ],
      "name": "safeTransferFrom",
      "outputs": [],
      "stateMutability": "nonpayable",
      "type": "function"
    },
    {
      "inputs": [
        {
          "internalType": "address",
          "name": "from",
          "type": "address"
        },
        {
          "internalType": "address",
          "name": "to",
          "type": "address"
        },
        {
          "internalType": "uint256",
          "name": "tokenId",
          "type": "uint256"
        },
        {
          "internalType": "bytes",
          "name": "_data",
          "type": "bytes"
        }
      ],
      "name": "safeTransferFrom",
      "outputs": [],
      "stateMutability": "nonpayable",
      "type": "function"
    },
    {
      "inputs": [
        {
          "internalType": "address",
          "name": "operator",
          "type": "address"
        },
        {
          "internalType": "bool",
          "name": "approved",
          "type": "bool"
        }
      ],
      "name": "setApprovalForAll",
      "outputs": [],
      "stateMutability": "nonpayable",
      "type": "function"
    },
    {
      "inputs": [
        {
          "internalType": "bytes4",
          "name": "interfaceId",
          "type": "bytes4"
        }
      ],
      "name": "supportsInterface",
      "outputs": [
        {
          "internalType": "bool",
          "name": "",
          "type": "bool"
        }
      ],
      "stateMutability": "view",
      "type": "function",
      "constant": true
    },
    {
      "inputs": [],
      "name": "symbol",
      "outputs": [
        {
          "internalType": "string",
          "name": "",
          "type": "string"
        }
      ],
      "stateMutability": "view",
      "type": "function",
      "constant": true
    },
    {
      "inputs": [
        {
          "internalType": "uint256",
          "name": "tokenId",
          "type": "uint256"
        }
      ],
      "name": "tokenURI",
      "outputs": [
        {
          "internalType": "string",
          "name": "",
          "type": "string"
        }
      ],
      "stateMutability": "view",
      "type": "function",
      "constant": true
    },
    {
      "inputs": [
        {
          "internalType": "address",
          "name": "from",
          "type": "address"
        },
        {
          "internalType": "address",
          "name": "to",
          "type": "address"
        },
        {
          "internalType": "uint256",
          "name": "tokenId",
          "type": "uint256"
        }
      ],
      "name": "transferFrom",
      "outputs": [],
      "stateMutability": "nonpayable",
      "type": "function"
    },
    {
      "inputs": [],
      "name": "getRandomNumber",
      "outputs": [
        {
          "internalType": "uint256",
          "name": "",
          "type": "uint256"
        }
      ],
      "stateMutability": "view",
      "type": "function",
      "constant": true
    },
    {
      "inputs": [],
      "name": "getIsland",
      "outputs": [
        {
          "internalType": "uint256",
          "name": "",
          "type": "uint256"
        }
      ],
      "stateMutability": "nonpayable",
      "type": "function"
    },
    {
      "inputs": [
        {
          "internalType": "uint256",
          "name": "island",
          "type": "uint256"
        }
      ],
      "name": "getIslandOwner",
      "outputs": [
        {
          "internalType": "address",
          "name": "",
          "type": "address"
        }
      ],
      "stateMutability": "view",
      "type": "function",
      "constant": true
    },
    {
      "inputs": [],
      "name": "getCaller",
      "outputs": [
        {
          "internalType": "address",
          "name": "",
          "type": "address"
        }
      ],
      "stateMutability": "view",
      "type": "function",
      "constant": true
    },
    {
      "inputs": [],
      "name": "getCallerBalance",
      "outputs": [
        {
          "internalType": "uint256",
          "name": "",
          "type": "uint256"
        }
      ],
      "stateMutability": "view",
      "type": "function",
      "constant": true
    }
  ],
  "bytecode": "0x60806040526008600655600a60075560006008553480156200002057600080fd5b506040518060400160405280600b81526020017f49736c616e6451756573740000000000000000000000000000000000000000008152506040518060400160405280600381526020017f494c5100000000000000000000000000000000000000000000000000000000008152508160009080519060200190620000a5929190620000c7565b508060019080519060200190620000be929190620000c7565b505050620001dc565b828054620000d59062000177565b90600052602060002090601f016020900481019282620000f9576000855562000145565b82601f106200011457805160ff191683800117855562000145565b8280016001018555821562000145579182015b828111156200014457825182559160200191906001019062000127565b5b50905062000154919062000158565b5090565b5b808211156200017357600081600090555060010162000159565b5090565b600060028204905060018216806200019057607f821691505b60208210811415620001a757620001a6620001ad565b5b50919050565b7f4e487b7100000000000000000000000000000000000000000000000000000000600052602260045260246000fd5b61292d80620001ec6000396000f3fe608060405234801561001057600080fd5b50600436106101165760003560e01c806395d89b41116100a2578063ad3192cb11610071578063ad3192cb146102f3578063b88d4fde14610311578063c87b56dd1461032d578063dbdff2c11461035d578063e985e9c51461037b57610116565b806395d89b411461027d578063a22cb4651461029b578063ab470f05146102b7578063ad0e17e9146102d557610116565b806323b872dd116100e957806323b872dd146101b55780633d398588146101d157806342842e0e146102015780636352211e1461021d57806370a082311461024d57610116565b806301ffc9a71461011b57806306fdde031461014b578063081812fc14610169578063095ea7b314610199575b600080fd5b61013560048036038101906101309190611a89565b6103ab565b6040516101429190611eb4565b60405180910390f35b61015361048d565b6040516101609190611ecf565b60405180910390f35b610183600480360381019061017e9190611adb565b61051f565b6040516101909190611e4d565b60405180910390f35b6101b360048036038101906101ae9190611a4d565b6105a4565b005b6101cf60048036038101906101ca9190611947565b6106bc565b005b6101eb60048036038101906101e69190611adb565b61071c565b6040516101f89190611e4d565b60405180910390f35b61021b60048036038101906102169190611947565b61072e565b005b61023760048036038101906102329190611adb565b61074e565b6040516102449190611e4d565b60405180910390f35b610267600480360381019061026291906118e2565b610800565b60405161027491906120b1565b60405180910390f35b6102856108b8565b6040516102929190611ecf565b60405180910390f35b6102b560048036038101906102b09190611a11565b61094a565b005b6102bf610acb565b6040516102cc9190611e4d565b60405180910390f35b6102dd610ad3565b6040516102ea91906120b1565b60405180910390f35b6102fb610b0a565b60405161030891906120b1565b60405180910390f35b61032b60048036038101906103269190611996565b610b1a565b005b61034760048036038101906103429190611adb565b610b7c565b6040516103549190611ecf565b60405180910390f35b610365610c23565b60405161037291906120b1565b60405180910390f35b6103956004803603810190610390919061190b565b610c96565b6040516103a29190611eb4565b60405180910390f35b60007f80ac58cd000000000000000000000000000000000000000000000000000000007bffffffffffffffffffffffffffffffffffffffffffffffffffffffff1916827bffffffffffffffffffffffffffffffffffffffffffffffffffffffff1916148061047657507f5b5e139f000000000000000000000000000000000000000000000000000000007bffffffffffffffffffffffffffffffffffffffffffffffffffffffff1916827bffffffffffffffffffffffffffffffffffffffffffffffffffffffff1916145b80610486575061048582610d2a565b5b9050919050565b60606000805461049c906122d6565b80601f01602080910402602001604051908101604052809291908181526020018280546104c8906122d6565b80156105155780601f106104ea57610100808354040283529160200191610515565b820191906000526020600020905b8154815290600101906020018083116104f857829003601f168201915b5050505050905090565b600061052a82610d94565b610569576040517f08c379a000000000000000000000000000000000000000000000000000000000815260040161056090612011565b60405180910390fd5b6004600083815260200190815260200160002060009054906101000a900473ffffffffffffffffffffffffffffffffffffffff169050919050565b60006105af8261074e565b90508073ffffffffffffffffffffffffffffffffffffffff168373ffffffffffffffffffffffffffffffffffffffff161415610620576040517f08c379a000000000000000000000000000000000000000000000000000000000815260040161061790612071565b60405180910390fd5b8073ffffffffffffffffffffffffffffffffffffffff1661063f610e00565b73ffffffffffffffffffffffffffffffffffffffff16148061066e575061066d81610668610e00565b610c96565b5b6106ad576040517f08c379a00000000000000000000000000000000000000000000000000000000081526004016106a490611f91565b60405180910390fd5b6106b78383610e08565b505050565b6106cd6106c7610e00565b82610ec1565b61070c576040517f08c379a000000000000000000000000000000000000000000000000000000000815260040161070390612091565b60405180910390fd5b610717838383610f9f565b505050565b60006107278261074e565b9050919050565b61074983838360405180602001604052806000815250610b1a565b505050565b6000806002600084815260200190815260200160002060009054906101000a900473ffffffffffffffffffffffffffffffffffffffff169050600073ffffffffffffffffffffffffffffffffffffffff168173ffffffffffffffffffffffffffffffffffffffff1614156107f7576040517f08c379a00000000000000000000000000000000000000000000000000000000081526004016107ee90611fd1565b60405180910390fd5b80915050919050565b60008073ffffffffffffffffffffffffffffffffffffffff168273ffffffffffffffffffffffffffffffffffffffff161415610871576040517f08c379a000000000000000000000000000000000000000000000000000000000815260040161086890611fb1565b60405180910390fd5b600360008373ffffffffffffffffffffffffffffffffffffffff1673ffffffffffffffffffffffffffffffffffffffff168152602001908152602001600020549050919050565b6060600180546108c7906122d6565b80601f01602080910402602001604051908101604052809291908181526020018280546108f3906122d6565b80156109405780601f1061091557610100808354040283529160200191610940565b820191906000526020600020905b81548152906001019060200180831161092357829003601f168201915b5050505050905090565b610952610e00565b73ffffffffffffffffffffffffffffffffffffffff168273ffffffffffffffffffffffffffffffffffffffff1614156109c0576040517f08c379a00000000000000000000000000000000000000000000000000000000081526004016109b790611f51565b60405180910390fd5b80600560006109cd610e00565b73ffffffffffffffffffffffffffffffffffffffff1673ffffffffffffffffffffffffffffffffffffffff16815260200190815260200160002060008473ffffffffffffffffffffffffffffffffffffffff1673ffffffffffffffffffffffffffffffffffffffff16815260200190815260200160002060006101000a81548160ff0219169083151502179055508173ffffffffffffffffffffffffffffffffffffffff16610a7a610e00565b73ffffffffffffffffffffffffffffffffffffffff167f17307eab39ab6107e8899845ad3d59bd9653f200f220920489ca2b5937696c3183604051610abf9190611eb4565b60405180910390a35050565b600033905090565b600060086000815480929190610ae890612339565b91905055506000610af7610c23565b9050610b0333826111fb565b8091505090565b6000610b1533610800565b905090565b610b2b610b25610e00565b83610ec1565b610b6a576040517f08c379a0000000000000000000000000000000000000000000000000000000008152600401610b6190612091565b60405180910390fd5b610b7684848484611219565b50505050565b6060610b8782610d94565b610bc6576040517f08c379a0000000000000000000000000000000000000000000000000000000008152600401610bbd90612051565b60405180910390fd5b6000610bd0611275565b90506000815111610bf05760405180602001604052806000815250610c1b565b80610bfa8461128c565b604051602001610c0b929190611dec565b6040516020818303038152906040525b915050919050565b6000804233600854604051602001610c3d93929190611e10565b6040516020818303038152906040528051906020012060001c9050600060075482610c6891906123b0565b905060058110610c8257600581610c7f91906121ec565b90505b600181610c8f9190612165565b9250505090565b6000600560008473ffffffffffffffffffffffffffffffffffffffff1673ffffffffffffffffffffffffffffffffffffffff16815260200190815260200160002060008373ffffffffffffffffffffffffffffffffffffffff1673ffffffffffffffffffffffffffffffffffffffff16815260200190815260200160002060009054906101000a900460ff16905092915050565b60007f01ffc9a7000000000000000000000000000000000000000000000000000000007bffffffffffffffffffffffffffffffffffffffffffffffffffffffff1916827bffffffffffffffffffffffffffffffffffffffffffffffffffffffff1916149050919050565b60008073ffffffffffffffffffffffffffffffffffffffff166002600084815260200190815260200160002060009054906101000a900473ffffffffffffffffffffffffffffffffffffffff1673ffffffffffffffffffffffffffffffffffffffff1614159050919050565b600033905090565b816004600083815260200190815260200160002060006101000a81548173ffffffffffffffffffffffffffffffffffffffff021916908373ffffffffffffffffffffffffffffffffffffffff160217905550808273ffffffffffffffffffffffffffffffffffffffff16610e7b8361074e565b73ffffffffffffffffffffffffffffffffffffffff167f8c5be1e5ebec7d5bd14f71427d1e84f3dd0314c0f7b2291e5b200ac8c7c3b92560405160405180910390a45050565b6000610ecc82610d94565b610f0b576040517f08c379a0000000000000000000000000000000000000000000000000000000008152600401610f0290611f71565b60405180910390fd5b6000610f168361074e565b90508073ffffffffffffffffffffffffffffffffffffffff168473ffffffffffffffffffffffffffffffffffffffff161480610f8557508373ffffffffffffffffffffffffffffffffffffffff16610f6d8461051f565b73ffffffffffffffffffffffffffffffffffffffff16145b80610f965750610f958185610c96565b5b91505092915050565b8273ffffffffffffffffffffffffffffffffffffffff16610fbf8261074e565b73ffffffffffffffffffffffffffffffffffffffff1614611015576040517f08c379a000000000000000000000000000000000000000000000000000000000815260040161100c90612031565b60405180910390fd5b600073ffffffffffffffffffffffffffffffffffffffff168273ffffffffffffffffffffffffffffffffffffffff161415611085576040517f08c379a000000000000000000000000000000000000000000000000000000000815260040161107c90611f31565b60405180910390fd5b611090838383611439565b61109b600082610e08565b6001600360008573ffffffffffffffffffffffffffffffffffffffff1673ffffffffffffffffffffffffffffffffffffffff16815260200190815260200160002060008282546110eb91906121ec565b925050819055506001600360008473ffffffffffffffffffffffffffffffffffffffff1673ffffffffffffffffffffffffffffffffffffffff16815260200190815260200160002060008282546111429190612165565b92505081905550816002600083815260200190815260200160002060006101000a81548173ffffffffffffffffffffffffffffffffffffffff021916908373ffffffffffffffffffffffffffffffffffffffff160217905550808273ffffffffffffffffffffffffffffffffffffffff168473ffffffffffffffffffffffffffffffffffffffff167fddf252ad1be2c89b69c2b068fc378daa952ba7f163c4a11628f55a4df523b3ef60405160405180910390a4505050565b61121582826040518060200160405280600081525061143e565b5050565b611224848484610f9f565b61123084848484611499565b61126f576040517f08c379a000000000000000000000000000000000000000000000000000000000815260040161126690611ef1565b60405180910390fd5b50505050565b606060405180602001604052806000815250905090565b606060008214156112d4576040518060400160405280600181526020017f30000000000000000000000000000000000000000000000000000000000000008152509050611434565b600082905060005b600082146113065780806112ef90612339565b915050600a826112ff91906121bb565b91506112dc565b60008167ffffffffffffffff811115611348577f4e487b7100000000000000000000000000000000000000000000000000000000600052604160045260246000fd5b6040519080825280601f01601f19166020018201604052801561137a5781602001600182028036833780820191505090505b5090505b6000851461142d5760018261139391906121ec565b9150600a856113a291906123b0565b60306113ae9190612165565b60f81b8183815181106113ea577f4e487b7100000000000000000000000000000000000000000000000000000000600052603260045260246000fd5b60200101907effffffffffffffffffffffffffffffffffffffffffffffffffffffffffffff1916908160001a905350600a8561142691906121bb565b945061137e565b8093505050505b919050565b505050565b6114488383611630565b6114556000848484611499565b611494576040517f08c379a000000000000000000000000000000000000000000000000000000000815260040161148b90611ef1565b60405180910390fd5b505050565b60006114ba8473ffffffffffffffffffffffffffffffffffffffff166117fe565b15611623578373ffffffffffffffffffffffffffffffffffffffff1663150b7a026114e3610e00565b8786866040518563ffffffff1660e01b81526004016115059493929190611e68565b602060405180830381600087803b15801561151f57600080fd5b505af192505050801561155057506040513d601f19601f8201168201806040525081019061154d9190611ab2565b60015b6115d3573d8060008114611580576040519150601f19603f3d011682016040523d82523d6000602084013e611585565b606091505b506000815114156115cb576040517f08c379a00000000000000000000000000000000000000000000000000000000081526004016115c290611ef1565b60405180910390fd5b805181602001fd5b63150b7a0260e01b7bffffffffffffffffffffffffffffffffffffffffffffffffffffffff1916817bffffffffffffffffffffffffffffffffffffffffffffffffffffffff191614915050611628565b600190505b949350505050565b600073ffffffffffffffffffffffffffffffffffffffff168273ffffffffffffffffffffffffffffffffffffffff1614156116a0576040517f08c379a000000000000000000000000000000000000000000000000000000000815260040161169790611ff1565b60405180910390fd5b6116a981610d94565b156116e9576040517f08c379a00000000000000000000000000000000000000000000000000000000081526004016116e090611f11565b60405180910390fd5b6116f560008383611439565b6001600360008473ffffffffffffffffffffffffffffffffffffffff1673ffffffffffffffffffffffffffffffffffffffff16815260200190815260200160002060008282546117459190612165565b92505081905550816002600083815260200190815260200160002060006101000a81548173ffffffffffffffffffffffffffffffffffffffff021916908373ffffffffffffffffffffffffffffffffffffffff160217905550808273ffffffffffffffffffffffffffffffffffffffff16600073ffffffffffffffffffffffffffffffffffffffff167fddf252ad1be2c89b69c2b068fc378daa952ba7f163c4a11628f55a4df523b3ef60405160405180910390a45050565b600080823b905060008111915050919050565b600061182461181f846120f1565b6120cc565b90508281526020810184848401111561183c57600080fd5b611847848285612294565b509392505050565b60008135905061185e8161289b565b92915050565b600081359050611873816128b2565b92915050565b600081359050611888816128c9565b92915050565b60008151905061189d816128c9565b92915050565b600082601f8301126118b457600080fd5b81356118c4848260208601611811565b91505092915050565b6000813590506118dc816128e0565b92915050565b6000602082840312156118f457600080fd5b60006119028482850161184f565b91505092915050565b6000806040838503121561191e57600080fd5b600061192c8582860161184f565b925050602061193d8582860161184f565b9150509250929050565b60008060006060848603121561195c57600080fd5b600061196a8682870161184f565b935050602061197b8682870161184f565b925050604061198c868287016118cd565b9150509250925092565b600080600080608085870312156119ac57600080fd5b60006119ba8782880161184f565b94505060206119cb8782880161184f565b93505060406119dc878288016118cd565b925050606085013567ffffffffffffffff8111156119f957600080fd5b611a05878288016118a3565b91505092959194509250565b60008060408385031215611a2457600080fd5b6000611a328582860161184f565b9250506020611a4385828601611864565b9150509250929050565b60008060408385031215611a6057600080fd5b6000611a6e8582860161184f565b9250506020611a7f858286016118cd565b9150509250929050565b600060208284031215611a9b57600080fd5b6000611aa984828501611879565b91505092915050565b600060208284031215611ac457600080fd5b6000611ad28482850161188e565b91505092915050565b600060208284031215611aed57600080fd5b6000611afb848285016118cd565b91505092915050565b611b0d81612220565b82525050565b611b24611b1f82612220565b612382565b82525050565b611b3381612232565b82525050565b6000611b4482612122565b611b4e8185612138565b9350611b5e8185602086016122a3565b611b678161249d565b840191505092915050565b6000611b7d8261212d565b611b878185612149565b9350611b978185602086016122a3565b611ba08161249d565b840191505092915050565b6000611bb68261212d565b611bc0818561215a565b9350611bd08185602086016122a3565b80840191505092915050565b6000611be9603283612149565b9150611bf4826124bb565b604082019050919050565b6000611c0c601c83612149565b9150611c178261250a565b602082019050919050565b6000611c2f602483612149565b9150611c3a82612533565b604082019050919050565b6000611c52601983612149565b9150611c5d82612582565b602082019050919050565b6000611c75602c83612149565b9150611c80826125ab565b604082019050919050565b6000611c98603883612149565b9150611ca3826125fa565b604082019050919050565b6000611cbb602a83612149565b9150611cc682612649565b604082019050919050565b6000611cde602983612149565b9150611ce982612698565b604082019050919050565b6000611d01602083612149565b9150611d0c826126e7565b602082019050919050565b6000611d24602c83612149565b9150611d2f82612710565b604082019050919050565b6000611d47602983612149565b9150611d528261275f565b604082019050919050565b6000611d6a602f83612149565b9150611d75826127ae565b604082019050919050565b6000611d8d602183612149565b9150611d98826127fd565b604082019050919050565b6000611db0603183612149565b9150611dbb8261284c565b604082019050919050565b611dcf8161228a565b82525050565b611de6611de18261228a565b6123a6565b82525050565b6000611df88285611bab565b9150611e048284611bab565b91508190509392505050565b6000611e1c8286611dd5565b602082019150611e2c8285611b13565b601482019150611e3c8284611dd5565b602082019150819050949350505050565b6000602082019050611e626000830184611b04565b92915050565b6000608082019050611e7d6000830187611b04565b611e8a6020830186611b04565b611e976040830185611dc6565b8181036060830152611ea98184611b39565b905095945050505050565b6000602082019050611ec96000830184611b2a565b92915050565b60006020820190508181036000830152611ee98184611b72565b905092915050565b60006020820190508181036000830152611f0a81611bdc565b9050919050565b60006020820190508181036000830152611f2a81611bff565b9050919050565b60006020820190508181036000830152611f4a81611c22565b9050919050565b60006020820190508181036000830152611f6a81611c45565b9050919050565b60006020820190508181036000830152611f8a81611c68565b9050919050565b60006020820190508181036000830152611faa81611c8b565b9050919050565b60006020820190508181036000830152611fca81611cae565b9050919050565b60006020820190508181036000830152611fea81611cd1565b9050919050565b6000602082019050818103600083015261200a81611cf4565b9050919050565b6000602082019050818103600083015261202a81611d17565b9050919050565b6000602082019050818103600083015261204a81611d3a565b9050919050565b6000602082019050818103600083015261206a81611d5d565b9050919050565b6000602082019050818103600083015261208a81611d80565b9050919050565b600060208201905081810360008301526120aa81611da3565b9050919050565b60006020820190506120c66000830184611dc6565b92915050565b60006120d66120e7565b90506120e28282612308565b919050565b6000604051905090565b600067ffffffffffffffff82111561210c5761210b61246e565b5b6121158261249d565b9050602081019050919050565b600081519050919050565b600081519050919050565b600082825260208201905092915050565b600082825260208201905092915050565b600081905092915050565b60006121708261228a565b915061217b8361228a565b9250827fffffffffffffffffffffffffffffffffffffffffffffffffffffffffffffffff038211156121b0576121af6123e1565b5b828201905092915050565b60006121c68261228a565b91506121d18361228a565b9250826121e1576121e0612410565b5b828204905092915050565b60006121f78261228a565b91506122028361228a565b925082821015612215576122146123e1565b5b828203905092915050565b600061222b8261226a565b9050919050565b60008115159050919050565b60007fffffffff0000000000000000000000000000000000000000000000000000000082169050919050565b600073ffffffffffffffffffffffffffffffffffffffff82169050919050565b6000819050919050565b82818337600083830152505050565b60005b838110156122c15780820151818401526020810190506122a6565b838111156122d0576000848401525b50505050565b600060028204905060018216806122ee57607f821691505b602082108114156123025761230161243f565b5b50919050565b6123118261249d565b810181811067ffffffffffffffff821117156123305761232f61246e565b5b80604052505050565b60006123448261228a565b91507fffffffffffffffffffffffffffffffffffffffffffffffffffffffffffffffff821415612377576123766123e1565b5b600182019050919050565b600061238d82612394565b9050919050565b600061239f826124ae565b9050919050565b6000819050919050565b60006123bb8261228a565b91506123c68361228a565b9250826123d6576123d5612410565b5b828206905092915050565b7f4e487b7100000000000000000000000000000000000000000000000000000000600052601160045260246000fd5b7f4e487b7100000000000000000000000000000000000000000000000000000000600052601260045260246000fd5b7f4e487b7100000000000000000000000000000000000000000000000000000000600052602260045260246000fd5b7f4e487b7100000000000000000000000000000000000000000000000000000000600052604160045260246000fd5b6000601f19601f8301169050919050565b60008160601b9050919050565b7f4552433732313a207472616e7366657220746f206e6f6e20455243373231526560008201527f63656976657220696d706c656d656e7465720000000000000000000000000000602082015250565b7f4552433732313a20746f6b656e20616c7265616479206d696e74656400000000600082015250565b7f4552433732313a207472616e7366657220746f20746865207a65726f2061646460008201527f7265737300000000000000000000000000000000000000000000000000000000602082015250565b7f4552433732313a20617070726f766520746f2063616c6c657200000000000000600082015250565b7f4552433732313a206f70657261746f7220717565727920666f72206e6f6e657860008201527f697374656e7420746f6b656e0000000000000000000000000000000000000000602082015250565b7f4552433732313a20617070726f76652063616c6c6572206973206e6f74206f7760008201527f6e6572206e6f7220617070726f76656420666f7220616c6c0000000000000000602082015250565b7f4552433732313a2062616c616e636520717565727920666f7220746865207a6560008201527f726f206164647265737300000000000000000000000000000000000000000000602082015250565b7f4552433732313a206f776e657220717565727920666f72206e6f6e657869737460008201527f656e7420746f6b656e0000000000000000000000000000000000000000000000602082015250565b7f4552433732313a206d696e7420746f20746865207a65726f2061646472657373600082015250565b7f4552433732313a20617070726f76656420717565727920666f72206e6f6e657860008201527f697374656e7420746f6b656e0000000000000000000000000000000000000000602082015250565b7f4552433732313a207472616e73666572206f6620746f6b656e2074686174206960008201527f73206e6f74206f776e0000000000000000000000000000000000000000000000602082015250565b7f4552433732314d657461646174613a2055524920717565727920666f72206e6f60008201527f6e6578697374656e7420746f6b656e0000000000000000000000000000000000602082015250565b7f4552433732313a20617070726f76616c20746f2063757272656e74206f776e6560008201527f7200000000000000000000000000000000000000000000000000000000000000602082015250565b7f4552433732313a207472616e736665722063616c6c6572206973206e6f74206f60008201527f776e6572206e6f7220617070726f766564000000000000000000000000000000602082015250565b6128a481612220565b81146128af57600080fd5b50565b6128bb81612232565b81146128c657600080fd5b50565b6128d28161223e565b81146128dd57600080fd5b50565b6128e98161228a565b81146128f457600080fd5b5056fea264697066735822122080eeeca06bb6ebd3fb44d10a54ec171b3bdbcc1b833cd34954165c257908ff1164736f6c63430008040033",
  "immutableReferences": {},
  "source": "// SPDX-License-Identifier: MIT\npragma solidity ^0.8.0;\nimport \"@openzeppelin/contracts/token/ERC721/ERC721.sol\";\n\ncontract IslandOwnership is ERC721 {\n  uint numberOfIslands = 8;\n  uint modulus = 10;\n  uint randNonce = 0;\n\n  constructor() ERC721(\"IslandQuest\", \"ILQ\") {}\n  \n  // returns pseudorandom number between 1 and 5\n  function getRandomNumber() public view returns (uint) {\n    uint seed = uint(keccak256(abi.encodePacked(block.timestamp, msg.sender, randNonce)));\n    uint rand = seed % modulus; // returns 0 to 9 \n    if (rand >= 5) {\n        rand -= 5; // 5 -> 0; 9 => 4\n    }\n    return rand + 1; // returns 1 to 5\n  }\n\n  // assigns an island to an owner, does not allow co-ownership and minting the same island again\n  function getIsland() public returns (uint) {\n    randNonce++;\n    uint island = getRandomNumber();\n    _safeMint(msg.sender, island);\n    return island;\n  }  \n\n  function getIslandOwner(uint256 island) public view returns (address) {\n    return ownerOf(island);\n  }\n\n  function getCaller() public view returns (address) {\n    return msg.sender;\n  }\n\n  function getCallerBalance() public view returns (uint) {\n    return balanceOf(msg.sender);\n  }\n}\n",
  "sourcePath": "/Users/winker.xiao/devs/island/island-server/contracts/IslandOwnership.sol",
  "compiler": {
    "name": "solc",
    "version": "0.8.4+commit.c7e474f2.Emscripten.clang"
  },
  "schemaVersion": "3.4.1",
  "updatedAt": "2021-06-04T22:10:09.388Z",
  "networkType": "ethereum",
  "devdoc": {
    "kind": "dev",
    "methods": {
      "approve(address,uint256)": {
        "details": "See {IERC721-approve}."
      },
      "balanceOf(address)": {
        "details": "See {IERC721-balanceOf}."
      },
      "getApproved(uint256)": {
        "details": "See {IERC721-getApproved}."
      },
      "isApprovedForAll(address,address)": {
        "details": "See {IERC721-isApprovedForAll}."
      },
      "name()": {
        "details": "See {IERC721Metadata-name}."
      },
      "ownerOf(uint256)": {
        "details": "See {IERC721-ownerOf}."
      },
      "safeTransferFrom(address,address,uint256)": {
        "details": "See {IERC721-safeTransferFrom}."
      },
      "safeTransferFrom(address,address,uint256,bytes)": {
        "details": "See {IERC721-safeTransferFrom}."
      },
      "setApprovalForAll(address,bool)": {
        "details": "See {IERC721-setApprovalForAll}."
      },
      "supportsInterface(bytes4)": {
        "details": "See {IERC165-supportsInterface}."
      },
      "symbol()": {
        "details": "See {IERC721Metadata-symbol}."
      },
      "tokenURI(uint256)": {
        "details": "See {IERC721Metadata-tokenURI}."
      },
      "transferFrom(address,address,uint256)": {
        "details": "See {IERC721-transferFrom}."
      }
    },
    "version": 1
  },
  "userdoc": {
    "kind": "user",
    "methods": {},
    "version": 1
  }
}